:020000040000FA
:040000004DEF00F0D0
:020004000000FA
:0400080064EF00F0B1
:080018001100030E926E8994A1
:10002000899693809382938493869388956A8C6A49
:10003000C00E946E8B6A1200330E006E4F0E016E6E
:100040003B0E026E390E036E7E0E046E7D0E056E43
:100050001F0E066E0B0E076E0A6A1200240EAC6E9F
:10006000900EAB6E080EB86E040EB06E100EAF6E32
:100070001200C2800D0EC16E080EC06E1200910EED
:10008000D56E44EC00F012003C0ED76EB00ED66E6A
:100090001200E00EF26EF19E12000DEC00F01CEC6E
:1000A00000F02EEC00F049EC00F03FEC00F039ECF1
:1000B00000F00AAE69EF00F08FEF00F08B908B92AA
:1000C0008B948B9659EF00F0F29444EC00F0FA0E0A
:1000D000086E8B8481A279EC00F09EAA5EEF00F09E
:1000E000AE500B6E500E0B625EEF00F00A8E5EEFAC
:1000F00000F0ABEC00F0ABEC00F081B212000A8E25
:1001000081A280EF00F01200ABEC00F0ABEC00F04D
:1001100081B212000A9E81A28BEF00F012008B8048
:100120000AAC99EF00F00A9C81A284EC00F05EEF2B
:1001300000F081B2A0EF00F084EC00F05EEF00F080
:100140009EAA99EF00F0AE500B6E500E0B6299EF25
:1001500000F08FEF00F00C680D680D2EADEF00F091
:080160000C2EACEF00F01200C0
:020000040030CA
:0100010006F8
:010003001EDE
:010005008179
:010006008178
:00000001FF
