:020000040000FA
:0400000049EF01F0D3
:020004000000FA
:040008000DEF00F008
:080018001100F2B458EC00F0F5
:100020001100030E926E8994899693809382938433
:1000300093869388956A8C6AC00E946E8B908B928F
:100040008B948B961200330E006E4F0E016E3B0E9A
:10005000026E390E036E7E0E046E7D0E056E1F0E4F
:10006000066E0B0E076E0A6A270E106E1200240E23
:10007000AC6E900EAB6E080EB86E040EB06E100E25
:10008000AF6EC2800D0EC16EC09EC08AC088C08493
:10009000C0801200910ED56E4FEC00F012003C0EA5
:1000A000D76EB00ED66E1200E00EF26EF19E120008
:1000B0004FEC00F0F2945EEC00F0120010C011F072
:1000C00089846AEC00F0102E61EF00F0899411C071
:1000D00010F01200290E126E122E6CEF00F01200BA
:1000E0008B84D6EC00F00AAA9EEC00F00ABAEAEC87
:1000F00000F081A288EC00F09EAA5AEF01F0AE5009
:100100000B6E500E0B625AEF01F00A8E5AEF01F09F
:1001100040EC01F040EC01F081B212000A8E81A2A5
:100120008FEF00F0120040EC01F040EC01F081B2E2
:1001300012000A9E81A29AEF00F01200C284C282CD
:10014000C2B2A0EF00F0C4CF0EF0C80E0E60AEEC4D
:1001500000F00F0E0E64BFEC00F01200900E105C69
:10016000D8A4D0EC00F0C282C2B2B4EF00F0C4CF89
:100170000FF08C0E0F5CD8A8B3EF00F01200270E22
:10018000105CD8A4D3EC00F0C282C2B2C5EF00F07C
:10019000C4CF0FF0640E0F5CD8B8C4EF00F01200AB
:1001A0000F0E102612000F0E105E120081B6120004
:1001B00040EC01F040EC01F081A6E0EF00F012000D
:1001C00081A6E0EF00F00A7A8B761200ACA2E6EF8F
:1001D00000F012009EAA1200AE500B6E0BC0ADFFD5
:1001E000E6EC00F0430E0B62F8EF00F0270E106E05
:1001F000440E0B62FEEF00F0360E106E450E0B62E1
:1002000004EF01F0450E106E460E0B620AEF01F08E
:10021000540E106E470E0B6210EF01F0630E106E5D
:10022000410E0B6216EF01F0720E106E420E0B6261
:100230001CEF01F0810E106E630E0B6222EF01F0D5
:10024000900E106E12008B808B960AAC2EEF01F090
:100250000A9C81A293EC00F05AEF01F081B235EFD5
:1002600001F093EC00F05AEF01F09EAA2EEF01F09E
:10027000AE500B6E500E0B622EEF01F023EF01F02B
:100280000C680D680D2E42EF01F00C2E41EF01F0CD
:10029000120011EC00F023EC00F037EC00F054EC0D
:1002A00000F04AEC00F041EC00F00AAE70EF00F014
:0E02B00023EF01F08B908B928B9455EF01F0B1
:020000040030CA
:0100010006F8
:010003001EDE
:010005008179
:010006008178
:00000001FF
