:020000040000FA
:04000000C7EF02F054
:020004000000FA
:040008000DEF00F008
:080018001100F2B462EC00F0EB
:100020001100030E926E8994899693809382938433
:1000300093869388956A8C6AC00E946E8B908B928F
:100040008B948B961200330E006E4F0E016E3B0E9A
:10005000026E390E036E7E0E046E7D0E056E1F0E4F
:10006000066E0B0E076E0A6A1B6A296A270E106E4F
:10007000176EE16AE26AE2821D6A1C6A1F6A1E6AE2
:100080001200240EAC6E900EAB6E080EB86E040E0D
:10009000B06E100EAF6EC2800D0EC16EC09EC08AD3
:1000A000C088C084C0801200910ED56E59EC00F05B
:1000B00012003C0ED76EB00ED66E1200E00EF26E3D
:1000C000F19E120059EC00F0F2940AA88FEC00F0B7
:1000D0000AB8A1EC00F00AA482EF00F01EC021F0E3
:1000E000140E1E26D8B677EF00F082EF00F0140E43
:1000F000236EFF0E226E2150225C235E23C01EF071
:100100001E061F2A81A687EF00F08DEF00F01B2A44
:10011000320E1B5CD8B40A8612001B6A120010C093
:1001200011F089849BEC00F0102E92EF00F089947E
:1001300011C010F01200290E126E122E9DEF00F069
:10014000120017C018F08986ADEC00F0172EA4EF4E
:1001500000F0899618C017F01200290E1A6E1A2E98
:10016000AFEF00F012001CC0E6FF1EC0E6FF1FC08C
:10017000E6FF1D2AEA0E1F5CD8B4C1EF00F0C5EF00
:1001800000F0600E1E5CD8B40A941E6A1F6A12004A
:100190000AA4CDEF00F0D0EF00F08B84D2EF00F096
:1001A0008B828B94B9EC01F00AAA06EC01F00ABA32
:1001B000DCEC01F00AB4C8EF00F081A479EC02F0A5
:1001C00081A2F0EC00F09EAAD8EF02F0AE500B6EC8
:1001D000500E0B62D8EF02F00A8E0A8CD8EF02F0B4
:1001E0008CEC02F08CEC02F081B212000A8E81A23B
:1001F000F7EF00F012008CEC02F08CEC02F081B210
:1002000012000A9E81A202EF01F0120042EC01F0FE
:100210008C6A0A98C284C282C2B20CEF01F0C4CFC9
:100220000EF0C80E0E601AEC01F00F0E0E642BECEF
:1002300001F012007B0E105CD8A43CEC01F0C282ED
:10024000C2B220EF01F0C4CF0FF08C0E0F5CD8A823
:100250001FEF01F01200270E105CD8A43FEC01F054
:10026000C282C2B231EF01F0C4CF0FF0640E0F5C56
:10027000D8B830EF01F012000C0E102612000C0E50
:10028000105E12000A88C294C282C2B245EF01F029
:10029000136A146A1350C4645FEF01F0132AD8B0D4
:1002A0005FEF01F0142A1350C4645FEF01F0132ACA
:1002B000132AD8B05FEF01F0142A4AEF01F0050EBF
:1002C000146465EF01F068EF01F073EC01F00AB41B
:1002D000270E146470EC01F014C017F00A881200A5
:1002E000270E146E1200280E10649BEF01F0340EDE
:1002F0001064A0EF01F0400E1064A5EF01F04C0E69
:100300001064AAEF01F0580E1064AFEF01F0640E14
:10031000106491EF01F0700E106496EF01F0B4EFED
:1003200001F005C08CFF410E1C6E120006C08CFF50
:10033000420E1C6E120000C08CFF430E1C6E120099
:1003400001C08CFF440E1C6E120002C08CFF450ED3
:100350001C6E120003C08CFF460E1C6E120004C0FF
:100360008CFF470E1C6E120007C08CFF630E1C6EC4
:10037000120081B612008CEC02F08CEC02F081A627
:10038000C3EF01F0120081A6C3EF01F00AB6CCEF73
:1003900001F00A7A8B7612000A960A74BF0E1D6E5F
:1003A000E16A000EE66E1D2ED1EF01F0E16A120047
:1003B000ACA2D8EF01F012009EAA1200AE500B6E54
:1003C0000A988C6A430E0B62EAEF01F0270E106E5A
:1003D00023EF02F0440E0B62F2EF01F0330E106EC9
:1003E00023EF02F0450E0B62FAEF01F03F0E106EA4
:1003F00023EF02F0460E0B6202EF02F04B0E106E7E
:1004000023EF02F0470E0B620AEF02F0570E106E58
:1004100023EF02F0410E0B6212EF02F0630E106E3A
:1004200023EF02F0420E0B621AEF02F06F0E106E15
:1004300023EF02F0630E0B6222EF02F07B0E106ED0
:1004400023EF02F01200FF0E136EFF0E146E080E63
:100450000C6E0C2E29EF02F0142E27EF02F0132E53
:1004600025EF02F073EC01F0270E176E0A88FF0EDD
:10047000136EFF0E146E020E0C6E0C2E3DEF02F08A
:10048000142E3BEF02F0132E39EF02F0370E176EE9
:100490000AB2B3EC00F012004B0EAD6ED8EC01F0D6
:1004A00012008B808B960AAC63EF02F020AE4CEC0E
:1004B00002F0DCEC01F08C6A530E0B6259EF02F093
:1004C0000A9CD8EF02F081B26AEF02F0FBEC00F078
:1004D000D8EF02F081A479EC02F09EAA63EF02F05B
:1004E000AE500B6E500E0B6263EF02F00A8C51EFB0
:1004F00002F08CEC02F08CEC02F081B4120081A4CA
:100500007FEF02F08CEC02F08CEC02F081A482EF21
:1005100002F095EC02F012000C680D680D2E8EEFC3
:1005200002F00C2E8DEF02F012000A82E16AE6CF93
:1005300024F0E6CF26F0E6CF25F0BCEC02F029B09F
:10054000A8EF02F02606D8B4B6EC02F09DEF02F058
:100550002606D8A49DEF02F024C00BF0E0EC01F0D9
:100560001D2E97EF02F0296A0A921200FF0E266EE6
:100570002506D8B4298012000C0E286EFD0E276EB9
:10058000274E282EC0EF02F000000000120011ECF0
:1005900000F023EC00F041EC00F05EEC00F054ECD5
:1005A00000F04BEC00F00AAEC8EF00F051EF02F0A3
:0C05B0008B908B928B948C6AD3EF02F03E
:020000040030CA
:0100010006F8
:010003001EDE
:010005008179
:010006008178
:00000001FF
