:020000040000FA
:0400000083EF02F098
:020004000000FA
:040008000DEF00F008
:080018001100F2B461EC00F0EC
:100020001100030E926E8994899693809382938433
:1000300093869388956A8C6AC00E946E8B908B928F
:100040008B948B961200330E006E4F0E016E3B0E9A
:10005000026E390E036E7E0E046E7D0E056E1F0E4F
:10006000066E0B0E076E0A6A1B6A270E106E176E5D
:10007000E16AE26AE2821D6A1C6A1F6A1E6A120055
:10008000240EAC6E900EAB6E080EB86E040EB06E01
:10009000100EAF6EC2800D0EC16EC09EC08AC088A9
:1000A000C084C0801200910ED56E58EC00F0120092
:1000B0003C0ED76EB00ED66E1200E00EF26EF19EC0
:1000C000120058EC00F0F2940AA886EC00F00AB88E
:1000D00098EC00F00AA479EF00F0FF0E1E5CD8B493
:1000E00074EF00F078EF00F01F2A1E6A79EF00F03D
:1000F0001E2A81A67EEF00F084EF00F01B2A320E4C
:100100001B5CD8B40A8612001B6A120010C011F0E2
:10011000898492EC00F0102E89EF00F0899411C0D0
:1001200010F01200290E126E122E94EF00F0120041
:1001300017C018F08986A4EC00F0172E9BEF00F092
:10014000899618C017F01200290E1A6E1A2EA6EF03
:1001500000F012001EC0E6FF1FC0E6FF1CC0E6FF55
:100160001D2AEA0E1F5CD8B4B8EF00F0BCEF00F017
:10017000600E1E5CD8B40A941E6A1F6A12000AA49C
:10018000C4EF00F0C7EF00F08B84C9EF00F08B8262
:100190008B94ACEC01F00AAAFCEC00F00ABACFECAC
:1001A00001F00AB4BFEF00F068EC02F081A2E6ECC7
:1001B00000F09EAA94EF02F0AE500B6E500E0B6250
:1001C00094EF02F00A8E0A8C94EF02F079EC02F0C0
:1001D00079EC02F081B212000A8E81A2EDEF00F0FC
:1001E000120079EC02F079EC02F081B212000A9E62
:1001F00081A2F8EF00F0120037EC01F00A98C284F7
:10020000C282C2B201EF01F0C4CF0EF0C80E0E6080
:100210000FEC01F00F0E0E6420EC01F01200900EB6
:10022000105CD8A431EC01F0C282C2B215EF01F02B
:10023000C4CF0FF08C0E0F5CD8A814EF01F01200A1
:10024000270E105CD8A434EC01F0C282C2B226EFB3
:1002500001F0C4CF0FF0640E0F5CD8B825EF01F0A9
:1002600012000F0E102612000F0E105E12000A88E8
:10027000C294C282C2B23AEF01F0136A146A1350F8
:10028000C46454EF01F0132AD8B054EF01F0142ADB
:100290001350C46454EF01F0132A132AD8B054EF5A
:1002A00001F0142A3FEF01F0050E146466EC01F032
:1002B0000AB4AAEC00F0280E146463EC01F014C038
:1002C00017F00A881200280E146E1200280E10640F
:1002D0008EEF01F0370E106493EF01F0460E1064BC
:1002E00098EF01F0550E10649DEF01F0640E10645C
:1002F000A2EF01F0730E106484EF01F0820E10641F
:1003000089EF01F0A7EF01F005C08CFF410E1C6ED4
:10031000120006C08CFF420E1C6E120000C08CFF43
:10032000430E1C6E120001C08CFF440E1C6E1200A6
:1003300002C08CFF450E1C6E120003C08CFF460EDF
:100340001C6E120004C08CFF470E1C6E120007C00A
:100350008CFF630E1C6E120081B6120079EC02F065
:1003600079EC02F081A6B6EF01F0120081A6B6EF9B
:1003700001F00AB6BFEF01F00A7A8B7612000A96F6
:100380000A74BF0E1D6EE16A000EE66E1D2EC4EFEC
:1003900001F0E16A1200ACA2CBEF01F012009EAABC
:1003A0001200AE500B6E0A98430E0B62DCEF01F0A8
:1003B000270E106E15EF02F0440E0B62E4EF01F011
:1003C000360E106E15EF02F0450E0B62ECEF01F0E9
:1003D000450E106E15EF02F0460E0B62F4EF01F0C1
:1003E000540E106E15EF02F0470E0B62FCEF01F099
:1003F000630E106E15EF02F0410E0B6204EF02F077
:10040000720E106E15EF02F0420E0B620CEF02F04E
:10041000810E106E15EF02F0630E0B6214EF02F006
:10042000900E106E15EF02F01200FF0E136EFF0E0D
:10043000146E080E0C6E0C2E1BEF02F0142E19EF2A
:1004400002F0132E17EF02F066EC01F0270E176E84
:100450000A88FF0E136EFF0E146E020E0C6E0C2E29
:100460002FEF02F0142E2DEF02F0132E2BEF02F0DF
:10047000370E176E12004B0EAD6ECBEC01F0120072
:100480008B808B960AAC52EF02F020AE3BEC02F070
:10049000CFEC01F08C6A530E0B6248EF02F00A9C1D
:1004A00094EF02F081B259EF02F0F1EC00F094EF1A
:1004B00002F081A468EC02F09EAA52EF02F0AE5066
:1004C0000B6E500E0B6252EF02F00A8C40EF02F0FE
:1004D00079EC02F079EC02F081B4120081A46EEFA5
:1004E00002F079EC02F079EC02F081A471EF02F0F5
:1004F00012000C680D680D2E7BEF02F00C2E7AEFC7
:1005000002F01200120011EC00F023EC00F040ECBD
:1005100000F05DEC00F053EC00F04AEC00F00AAEA5
:10052000BFEF00F040EF02F08B908B928B948C6ABF
:040530008FEF02F057
:020000040030CA
:0100010006F8
:010003001EDE
:010005008179
:010006008178
:00000001FF
