:020000040000FA
:040000008CEF02F08F
:020004000000FA
:040008000DEF00F008
:080018001100F2B461EC00F0EC
:100020001100030E926E8994899693809382938433
:1000300093869388956A8C6AC00E946E8B908B928F
:100040008B948B961200330E006E4F0E016E3B0E9A
:10005000026E390E036E7E0E046E7D0E056E1F0E4F
:10006000066E0B0E076E0A6A1B6A270E106E176E5D
:10007000E16AE26AE2821D6A1C6A1F6A1E6A120055
:10008000240EAC6E900EAB6E080EB86E040EB06E01
:10009000100EAF6EC2800D0EC16EC09EC08AC088A9
:1000A000C084C0801200910ED56E58EC00F0120092
:1000B0003C0ED76EB00ED66E1200E00EF26EF19EC0
:1000C000120058EC00F0F2940AA88EEC00F00AB886
:1000D000A0EC00F00AA481EF00F01EC021F0140E85
:1000E0001E26D8B676EF00F081EF00F0140E236ED6
:1000F000FF0E226E2150225C235E23C01EF01E06DE
:100100001F2A81A686EF00F08CEF00F01B2A320E2A
:100110001B5CD8B40A8612001B6A120010C011F0D2
:1001200089849AEC00F0102E91EF00F0899411C0B0
:1001300010F01200290E126E122E9CEF00F0120029
:1001400017C018F08986ACEC00F0172EA3EF00F072
:10015000899618C017F01200290E1A6E1A2EAEEFEB
:1001600000F012001EC0E6FF1FC0E6FF1CC0E6FF45
:100170001D2AEA0E1F5CD8B4C0EF00F0C4EF00F0F7
:10018000600E1E5CD8B40A941E6A1F6A12000AA48C
:10019000CCEF00F0CFEF00F08B84D1EF00F08B823A
:1001A0008B94B5EC01F00AAA05EC01F00ABAD8EC80
:1001B00001F00AB4C7EF00F081A471EC02F081A253
:1001C000EFEC00F09EAA9DEF02F0AE500B6E500EC9
:1001D0000B629DEF02F00A8E0A8C9DEF02F082EC1A
:1001E00002F082EC02F081B212000A8E81A2F6EFD8
:1001F00000F0120082EC02F082EC02F081B21200F8
:100200000A9E81A201EF01F0120040EC01F00A9871
:10021000C284C282C2B20AEF01F0C4CF0EF0C80E8F
:100220000E6018EC01F00F0E0E6429EC01F01200C4
:10023000900E105CD8A43AEC01F0C282C2B21EEF5C
:1002400001F0C4CF0FF08C0E0F5CD8A81DEF01F0A9
:100250001200270E105CD8A43DEC01F0C282C2B29D
:100260002FEF01F0C4CF0FF0640E0F5CD8B82EEF63
:1002700001F012000F0E102612000F0E105E120079
:100280000A88C294C282C2B243EF01F0136A146AB0
:100290001350C4645DEF01F0132AD8B05DEF01F094
:1002A000142A1350C4645DEF01F0132A132AD8B046
:1002B0005DEF01F0142A48EF01F0050E14646FECB5
:1002C00001F00AB4B2EC00F0280E14646CEC01F0FA
:1002D00014C017F00A881200280E146E1200280E9F
:1002E000106497EF01F0370E10649CEF01F0460E9A
:1002F0001064A1EF01F0550E1064A6EF01F0640E3A
:100300001064ABEF01F0730E10648DEF01F0820EFC
:10031000106492EF01F0B0EF01F005C08CFF410EC8
:100320001C6E120006C08CFF420E1C6E120000C034
:100330008CFF430E1C6E120001C08CFF440E1C6E1D
:10034000120002C08CFF450E1C6E120003C08CFF11
:10035000460E1C6E120004C08CFF470E1C6E12006D
:1003600007C08CFF630E1C6E120081B6120082EC77
:1003700002F082EC02F081A6BFEF01F0120081A62C
:10038000BFEF01F00AB6C8EF01F00A7A8B761200CF
:100390000A960A74BF0E1D6EE16A000EE66E1D2EEF
:1003A000CDEF01F0E16A1200ACA2D4EF01F012002F
:1003B0009EAA1200AE500B6E0A98430E0B62E5EF38
:1003C00001F0270E106E1EEF02F0440E0B62EDEFEF
:1003D00001F0360E106E1EEF02F0450E0B62F5EFC7
:1003E00001F0450E106E1EEF02F0460E0B62FDEF9F
:1003F00001F0540E106E1EEF02F0470E0B6205EF77
:1004000002F0630E106E1EEF02F0410E0B620DEF54
:1004100002F0720E106E1EEF02F0420E0B6215EF2C
:1004200002F0810E106E1EEF02F0630E0B621DEFE4
:1004300002F0900E106E1EEF02F01200FF0E136E0F
:10044000FF0E146E080E0C6E0C2E24EF02F0142E0C
:1004500022EF02F0132E20EF02F06FEC01F0270ED6
:10046000176E0A88FF0E136EFF0E146E020E0C6ECE
:100470000C2E38EF02F0142E36EF02F0132E34EF6C
:1004800002F0370E176E12004B0EAD6ED4EC01F079
:1004900012008B808B960AAC5BEF02F020AE44EC2E
:1004A00002F0D8EC01F08C6A530E0B6251EF02F0AF
:1004B0000A9C9DEF02F081B262EF02F0FAEC00F0CC
:1004C0009DEF02F081A471EC02F09EAA5BEF02F0B6
:1004D000AE500B6E500E0B625BEF02F00A8C49EFD0
:1004E00002F082EC02F082EC02F081B4120081A4EE
:1004F00077EF02F082EC02F082EC02F081A47AEF56
:1005000002F012000C680D680D2E84EF02F00C2E24
:1005100083EF02F01200120011EC00F023EC00F067
:1005200040EC00F05DEC00F053EC00F04AEC00F021
:100530000AAEC7EF00F049EF02F08B908B928B94DC
:060540008C6A98EF02F046
:020000040030CA
:0100010006F8
:010003001EDE
:010005008179
:010006008178
:00000001FF
