:020000040000FA
:04000000FAEF01F022
:020004000000FA
:040008000DEF00F008
:080018001100F2B45AEC00F0F3
:100020001100030E926E8994899693809382938433
:1000300093869388956A8C6AC00E946E8B908B928F
:100040008B948B961200330E006E4F0E016E3B0E9A
:10005000026E390E036E7E0E046E7D0E056E1F0E4F
:10006000066E0B0E076E0A6A1B6A270E106E176E5D
:100070001200240EAC6E900EAB6E080EB86E040E1D
:10008000B06E100EAF6EC2800D0EC16EC09EC08AE3
:10009000C088C084C0801200910ED56E51EC00F073
:1000A00012003C0ED76EB00ED66E1200E00EF26E4D
:1000B000F19E120051EC00F0F2940AA870EC00F0EE
:1000C0000AB882EC00F081A668EF00F06EEF00F055
:1000D0001B2A320E1B5CD8B40A8612001B6A12005F
:1000E00010C011F089847CEC00F0102E73EF00F04A
:1000F000899411C010F01200290E126E122E7EEF9C
:1001000000F0120017C018F089868EEC00F0172E50
:1001100085EF00F0899618C017F01200290E1A6EAC
:100120001A2E90EF00F012008B845FEC01F00AAA07
:10013000C2EC00F00ABA79EC01F081A2ACEC00F05C
:100140009EAA0BEF02F0AE500B6E500E0B620BEF3F
:1001500002F00A8E0BEF02F0F1EC01F0F1EC01F08D
:1001600081B212000A8E81A2B3EF00F01200F1EC0E
:1001700001F0F1EC01F081B212000A9E81A2BEEF03
:1001800000F01200FDEC00F00A98C284C282C2B2F4
:10019000C7EF00F0C4CF0EF0C80E0E60D5EC00F033
:1001A0000F0E0E64E6EC00F01200900E105CD8A466
:1001B000F7EC00F0C282C2B2DBEF00F0C4CF0FF068
:1001C0008C0E0F5CD8A8DAEF00F01200270E105C3E
:1001D000D8A4FAEC00F0C282C2B2ECEF00F0C4CFB7
:1001E0000FF0640E0F5CD8B8EBEF00F012000F0EAA
:1001F000102612000F0E105E12000A88C294C282EE
:10020000C2B200EF01F0136A146A1350C4641AEF0B
:1002100001F0132AD8B01AEF01F0142A1350C46465
:100220001AEF01F0132A132AD8B01AEF01F0142A9A
:1002300005EF01F0050E146429EC01F0280E14649A
:1002400026EC01F014C017F00A881200280E146E74
:100250001200280E10644DEF01F0370E106450EFBD
:1002600001F0460E106453EF01F0550E106456EF86
:1002700001F0640E106459EF01F0730E106447EF43
:1002800001F0820E10644AEF01F05CEF01F005C04E
:100290008CFF120006C08CFF120000C08CFF120001
:1002A00001C08CFF120002C08CFF120003C08CFF43
:1002B000120004C08CFF120007C08CFF120081B630
:1002C0001200F1EC01F0F1EC01F081A669EF01F010
:1002D000120081A669EF01F00AB672EF01F00A7A06
:1002E0008B7612000A968B821200ACA275EF01F099
:1002F00012009EAA1200AE500B6E0A98430E0B62BB
:1003000084EF01F0270E106E440E0B628AEF01F0AD
:10031000360E106E450E0B6290EF01F0450E106E1A
:10032000460E0B6296EF01F0540E106E470E0B62F4
:100330009CEF01F0630E106E410E0B62A2EF01F014
:10034000720E106E420E0B62A8EF01F0810E106E5D
:10035000630E0B62AEEF01F0900E106EFF0E136E87
:10036000FF0E146E080E0C6E0C2EB4EF01F0142E5E
:10037000B2EF01F0132EB0EF01F029EC01F0270EDF
:10038000176E0A88FF0E136EFF0E146E020E0C6EAF
:100390000C2EC8EF01F0142EC6EF01F0132EC4EF9F
:1003A00001F0370E176E12008B808B960AACDFEFD0
:1003B00001F00A9C81A2B7EC00F00BEF02F081B2D1
:1003C000E6EF01F0B7EC00F00BEF02F09EAADFEFD2
:1003D00001F0AE500B6E500E0B62DFEF01F0D4EF68
:1003E00001F00C680D680D2EF3EF01F00C2EF2EF0A
:1003F00001F0120011EC00F023EC00F039EC00F0F9
:1004000056EC00F04CEC00F043EC00F00AAE94EF38
:1004100000F0D4EF01F08B908B948C6A06EF02F021
:020000040030CA
:0100010006F8
:010003001EDE
:010005008179
:010006008178
:00000001FF
