:020000040000FA
:040000006CEF02F0AF
:020004000000FA
:040008000DEF00F008
:080018001100F2B461EC00F0EC
:100020001100030E926E8994899693809382938433
:1000300093869388956A8C6AC00E946E8B908B928F
:100040008B948B961200330E006E4F0E016E3B0E9A
:10005000026E390E036E7E0E046E7D0E056E1F0E4F
:10006000066E0B0E076E0A6A1B6A270E106E176E5D
:10007000E16AE26AE2821D6A1C6A1F6A1E6A120055
:10008000240EAC6E900EAB6E080EB86E040EB06E01
:10009000100EAF6EC2800D0EC16EC09EC08AC088A9
:1000A000C084C0801200910ED56E58EC00F0120092
:1000B0003C0ED76EB00ED66E1200E00EF26EF19EC0
:1000C000120058EC00F0F2940AA886EC00F00AB88E
:1000D00098EC00F00AA479EF00F0FF0E1E5CD8B493
:1000E00074EF00F078EF00F01F2A1E6A79EF00F03D
:1000F0001E2A81A67EEF00F084EF00F01B2A320E4C
:100100001B5CD8B40A8612001B6A120010C011F0E2
:10011000898492EC00F0102E89EF00F0899411C0D0
:1001200010F01200290E126E122E94EF00F0120041
:1001300017C018F08986A4EC00F0172E9BEF00F092
:10014000899618C017F01200290E1A6E1A2EA6EF03
:1001500000F012001EC0E6FF1FC0E6FF1CC0E6FF55
:100160001D2AEA0E1F5CD8B4B8EF00F0BCEF00F017
:10017000600E1E5CD8B40A941E6A1F6A12000AA49C
:10018000C4EF00F0C7EF00F08B84C9EF00F08B8262
:100190008B94AAEC01F00AAAFAEC00F00ABACDECB2
:1001A00001F00AB4BFEF00F081A2E4EC00F09EAAD7
:1001B0007DEF02F0AE500B6E500E0B627DEF02F041
:1001C0000A8E0A8C7DEF02F063EC02F063EC02F021
:1001D00081B212000A8E81A2EBEF00F0120063ECF4
:1001E00002F063EC02F081B212000A9E81A2F6EFE7
:1001F00000F0120035EC01F00A98C284C282C2B24B
:10020000FFEF00F0C4CF0EF0C80E0E600DEC01F051
:100210000F0E0E641EEC01F01200900E105CD8A4BC
:100220002FEC01F0C282C2B213EF01F0C4CF0FF085
:100230008C0E0F5CD8A812EF01F01200270E105C94
:10024000D8A432EC01F0C282C2B224EF01F0C4CFD4
:100250000FF0640E0F5CD8B823EF01F012000F0E00
:10026000102612000F0E105E12000A88C294C2827D
:10027000C2B238EF01F0136A146A1350C46452EF2B
:1002800001F0132AD8B052EF01F0142A1350C464BD
:1002900052EF01F0132A132AD8B052EF01F0142ABA
:1002A0003DEF01F0050E146464EC01F00AB4AAEC11
:1002B00000F0280E146461EC01F014C017F00A88F5
:1002C0001200280E146E1200280E10648CEF01F03C
:1002D000370E106491EF01F0460E106496EF01F0B6
:1002E000550E10649BEF01F0640E1064A0EF01F056
:1002F000730E106482EF01F0820E106487EF01F03C
:10030000A5EF01F005C08CFF410E1C6E120006C067
:100310008CFF420E1C6E120000C08CFF430E1C6E40
:10032000120001C08CFF440E1C6E120002C08CFF34
:10033000450E1C6E120003C08CFF460E1C6E120090
:1003400004C08CFF470E1C6E120007C08CFF630EAA
:100350001C6E120081B6120063EC02F063EC02F036
:1003600081A6B4EF01F0120081A6B4EF01F00AB645
:10037000BDEF01F00A7A8B7612000A960A74BF0E5E
:100380001D6EE16A000EE66E1D2EC2EF01F0E16AFD
:100390001200ACA2C9EF01F012009EAA1200AE50EA
:1003A0000B6E0A98430E0B62DAEF01F0270E106E07
:1003B00013EF02F0440E0B62E2EF01F0360E106E06
:1003C00013EF02F0450E0B62EAEF01F0450E106EDE
:1003D00013EF02F0460E0B62F2EF01F0540E106EB6
:1003E00013EF02F0470E0B62FAEF01F0630E106E8E
:1003F00013EF02F0410E0B6202EF02F0720E106E6C
:1004000013EF02F0420E0B620AEF02F0810E106E43
:1004100013EF02F0630E0B6212EF02F0900E106EFB
:1004200013EF02F01200FF0E136EFF0E146E080E93
:100430000C6E0C2E19EF02F0142E17EF02F0132E93
:1004400015EF02F064EC01F0270E176E0A88FF0E1C
:10045000136EFF0E146E020E0C6E0C2E2DEF02F0BA
:10046000142E2BEF02F0132E29EF02F0370E176E29
:1004700012004B0EAD6EC9EC01F012008B808B9612
:100480000AAC50EF02F020AE39EC02F0CDEC01F0F6
:100490008C6A530E0B6246EF02F00A9C7DEF02F06D
:1004A00081B257EF02F0EFEC00F07DEF02F09EAA70
:1004B00050EF02F0AE500B6E500E0B6250EF02F098
:1004C0000A8C3EEF02F00C680D680D2E65EF02F00D
:1004D0000C2E64EF02F0120011EC00F023EC00F09F
:1004E00040EC00F05DEC00F053EC00F04AEC00F062
:1004F0000AAEBFEF00F03EEF02F08B908B928B9430
:060500008C6A78EF02F0A6
:020000040030CA
:0100010006F8
:010003001EDE
:010005008179
:010006008178
:00000001FF
