:020000040000FA
:0400000045EF02F0D6
:020004000000FA
:040008000DEF00F008
:080018001100F2B461EC00F0EC
:100020001100030E926E8994899693809382938433
:1000300093869388956A8C6AC00E946E8B908B928F
:100040008B948B961200330E006E4F0E016E3B0E9A
:10005000026E390E036E7E0E046E7D0E056E1F0E4F
:10006000066E0B0E076E0A6A1B6A270E106E176E5D
:10007000E16AE26AE2821D6A1C6A1F6A1E6A120055
:10008000240EAC6E900EAB6E080EB86E040EB06E01
:10009000100EAF6EC2800D0EC16EC09EC08AC088A9
:1000A000C084C0801200910ED56E58EC00F0120092
:1000B0003C0ED76EB00ED66E1200E00EF26EF19EC0
:1000C000120058EC00F0F2940AA885EC00F00AB88F
:1000D00097EC00F00AA478EF00F0FF0E1E5CD8B495
:1000E00074EF00F077EF00F01F2A78EF00F01E2A7F
:1000F00081A67DEF00F083EF00F01B2A320E1B5C1F
:10010000D8B40A8612001B6A120010C011F089844C
:1001100091EC00F0102E88EF00F0899411C010F0DF
:100120001200290E126E122E93EF00F0120017C06B
:1001300018F08986A3EC00F0172E9AEF00F089964C
:1001400018C017F01200290E1A6E1A2EA5EF00F033
:1001500012001EC0E6FF1FC0E6FF1CC0E6FF1D2AFE
:10016000FF0E1F5CD8B40A941E6A1F6A12000AA40C
:10017000BCEF00F0BFEF00F08B84C1EF00F08B828A
:100180008B94A1EC01F00AAAF1EC00F00ABAC4ECDD
:1001900001F00AB4B7EF00F081A2DBEC00F09EAAF8
:1001A00056EF02F0AE500B6E500E0B6256EF02F09F
:1001B0000A8E56EF02F03CEC02F03CEC02F081B209
:1001C00012000A8E81A2E2EF00F012003CEC02F075
:1001D0003CEC02F081B212000A9E81A2EDEF00F029
:1001E00012002CEC01F00A98C284C282C2B2F6EF6F
:1001F00000F0C4CF0EF0C80E0E6004EC01F00F0E3C
:100200000E6415EC01F01200900E105CD8A426ECE0
:1002100001F0C282C2B20AEF01F0C4CF0FF08C0E1F
:100220000F5CD8A809EF01F01200270E105CD8A4CB
:1002300029EC01F0C282C2B21BEF01F0C4CF0FF073
:10024000640E0F5CD8B81AEF01F012000F0E1026E2
:1002500012000F0E105E12000A88C294C282C2B24F
:100260002FEF01F0136A146A1350C46449EF01F0D0
:10027000132AD8B049EF01F0142A1350C46449EF8F
:1002800001F0132A132AD8B049EF01F0142A34EFF1
:1002900001F0050E14645BEC01F00AB4A9EC00F067
:1002A000280E146458EC01F014C017F00A881200EC
:1002B000280E146E1200280E106483EF01F0370E22
:1002C000106488EF01F0460E10648DEF01F0550EBA
:1002D000106492EF01F0640E106497EF01F0730E5A
:1002E000106479EF01F0820E10647EEF01F09CEF54
:1002F00001F005C08CFF410E1C6E120006C08CFF81
:10030000420E1C6E120000C08CFF430E1C6E1200C9
:1003100001C08CFF440E1C6E120002C08CFF450E03
:100320001C6E120003C08CFF460E1C6E120004C02F
:100330008CFF470E1C6E120007C08CFF630E1C6EF4
:10034000120081B612003CEC02F03CEC02F081A6F7
:10035000ABEF01F0120081A6ABEF01F00AB6B4EFEB
:1003600001F00A7A8B7612000A960A74BF0E1D6E8F
:10037000E16A000EE66E1D2EB9EF01F0E16A12008F
:10038000ACA2C0EF01F012009EAA1200AE500B6E9C
:100390000A98430E0B62CFEF01F0270E106E440E49
:1003A0000B62D5EF01F0360E106E450E0B62DBEFDF
:1003B00001F0450E106E460E0B62E1EF01F0540E97
:1003C000106E470E0B62E7EF01F0630E106E410EE8
:1003D0000B62EDEF01F0720E106E420E0B62F3EF46
:1003E00001F0810E106E630E0B62F9EF01F0900EBA
:1003F000106EFF0E136EFF0E146E080E0C6E0C2E98
:10040000FFEF01F0142EFDEF01F0132EFBEF01F0D2
:100410005BEC01F0270E176E0A88FF0E136EFF0EBD
:10042000146E020E0C6E0C2E13EF02F0142E11EF50
:1004300002F0132E0FEF02F0370E176E12008B80B2
:100440008B960AAC2AEF02F00A9C81A2E6EC00F03F
:1004500056EF02F081B231EF02F0E6EC00F056EF19
:1004600002F09EAA2AEF02F0AE500B6E500E0B6205
:100470002AEF02F01FEF02F00C680D680D2E3EEF20
:1004800002F00C2E3DEF02F0120011EC00F023EC14
:1004900000F040EC00F05DEC00F053EC00F04AECB2
:1004A00000F00AAEB7EF00F01FEF02F08B908B92D6
:0804B0008B948C6A51EF02F0FD
:020000040030CA
:0100010006F8
:010003001EDE
:010005008179
:010006008178
:00000001FF
