:020000040000FA
:04000000DCEF02F03F
:020004000000FA
:040008000DEF00F008
:080018001100F2B462EC00F0EB
:100020001100030E926E8994899693809382938433
:1000300093869388956A8C6AC00E946E8B908B928F
:100040008B948B961200330E006E4F0E016E3B0E9A
:10005000026E390E036E7E0E046E7D0E056E1F0E4F
:10006000066E0B0E076E0A6A1B6A296A270E106E4F
:10007000176EE96AEA6AEA801D6A1C6A1F6A1E6ACC
:100080001200240EAC6E900EAB6E080EB86E040E0D
:10009000B06E100EAF6EC2800D0EC16EC09EC08AD3
:1000A000C088C084C0801200910ED56E59EC00F05B
:1000B00012003C0ED76EB00ED66E1200E00EF26E3D
:1000C000F19E120059EC00F0F2940AA8A0EC00F0A6
:1000D0000AB8B2EC00F00AA493EF00F0EA0E1F5C3D
:1000E000D8B475EF00F07FEF00F0600E1E5CD8B45E
:1000F0007CEF00F07FEF00F00A9493EF00F01EC059
:1001000021F0140E1E26D8B688EF00F093EF00F011
:10011000140E236EFF0E226E2150225C235E23C03C
:100120001EF01E061F2A81A698EF00F09EEF00F039
:100130001B2A320E1B5CD8B40A8612001B6A1200FE
:1001400010C011F08984ACEC00F0102EA3EF00F089
:10015000899411C010F01200290E126E122EAEEF0B
:1001600000F0120017C018F08986BEEC00F0172EC0
:10017000B5EF00F0899618C017F01200290E1A6E1C
:100180001A2EC0EF00F012001CC0EEFF1EC0EEFFE2
:100190001FC0EEFF1D2A1E6A1F6A12000AA4D3EFB9
:1001A00000F0D6EF00F08B84D8EF00F08B828B94B8
:1001B000CAEC01F00AAA0CEC01F00ABAEDEC01F06D
:1001C0000AB4CEEF00F081A48AEC02F081A2F6EC32
:1001D00000F09EAAEDEF02F0AE500B6E500E0B62D7
:1001E000EDEF02F00A8E0A8CEDEF02F09DEC02F0CA
:1001F0009DEC02F081B212000A8E81A2FDEF00F0A8
:1002000012009DEC02F09DEC02F081B212000A9EF9
:1002100081A208EF01F0120048EC01F08C6A0A9804
:10022000C284C282C2B212EF01F0C4CF0EF0C80E77
:100230000E6020EC01F00F0E0E6431EC01F01200A4
:100240007B0E105CD8A442EC01F0C282C2B226EF51
:1002500001F0C4CF0FF08C0E0F5CD8A825EF01F091
:100260001200270E105CD8A445EC01F0C282C2B285
:1002700037EF01F0C4CF0FF0640E0F5CD8B836EF43
:1002800001F012000C0E102612000C0E105E12006F
:100290000A88C294C282C2B24BEF01F0136A146A98
:1002A0001350C46465EF01F0132AD8B065EF01F074
:1002B000142A1350C46465EF01F0132A132AD8B02E
:1002C00065EF01F0142A50EF01F0050E14646BEF96
:1002D00001F076EF01F084EC01F00AB472EF01F066
:1002E00076EF01F00AA0C4EC00F00A80640E1460FE
:1002F0000A90270E146481EC01F014C017F00A88EC
:100300001200270E146E1200280E1064ACEF01F0DC
:10031000340E1064B1EF01F0400E1064B6EF01F03E
:100320004C0E1064BBEF01F0580E1064C0EF01F0EA
:10033000640E1064A2EF01F0700E1064A7EF01F0DC
:10034000C5EF01F005C08CFF410E1C6E120006C007
:100350008CFF420E1C6E120000C08CFF430E1C6E00
:10036000120001C08CFF440E1C6E120002C08CFFF4
:10037000450E1C6E120003C08CFF460E1C6E120050
:1003800004C08CFF470E1C6E120007C08CFF630E6A
:100390001C6E120081B612009DEC02F09DEC02F082
:1003A00081A6D4EF01F0120081A6D4EF01F00AB6C5
:1003B000DDEF01F00A7A8B7612000A960A74BF0EFE
:1003C0001D6EE96A000EEE6E1D2EE2EF01F0E96A85
:1003D0001200ACA2E9EF01F012009EAA1200AE508A
:1003E0000B6E0A988C6A430E0B62FBEF01F0270E2E
:1003F000106E34EF02F0440E0B6203EF02F0330E86
:10040000106E34EF02F0450E0B620BEF02F03F0E60
:10041000106E34EF02F0460E0B6213EF02F04B0E3B
:10042000106E34EF02F0470E0B621BEF02F0570E16
:10043000106E34EF02F0410E0B6223EF02F0630EF8
:10044000106E34EF02F0420E0B622BEF02F06F0ED3
:10045000106E34EF02F0630E0B6233EF02F07B0E8E
:10046000106E34EF02F01200FF0E136EFF0E146ECA
:10047000080E0C6E0C2E3AEF02F0142E38EF02F03C
:10048000132E36EF02F084EC01F0270E176E0A8867
:10049000FF0E136EFF0E146E020E0C6E0C2E4EEF3E
:1004A00002F0142E4CEF02F0132E4AEF02F0370E3A
:1004B000176E0AB4C4EC00F012004B0EAD6EE9ECFE
:1004C00001F012008B808B960AAC74EF02F020AE24
:1004D0005DEC02F0EDEC01F08C6A530E0B626AEFFA
:1004E00002F00A9CEDEF02F081B27BEF02F001EC2A
:1004F00001F0EDEF02F081A48AEC02F09EAA74EF05
:1005000002F0AE500B6E500E0B6274EF02F00A8CCC
:1005100062EF02F09DEC02F09DEC02F081B412005B
:1005200081A490EF02F09DEC02F09DEC02F081A41A
:1005300093EF02F0A6EC02F012000C680D680D2E8D
:100540009FEF02F00C2E9EEF02F01200000E1D5CD9
:10055000D8B412000A82E96AEECF24F0EECF26F07A
:10056000EECF25F0D1EC02F029B0BDEF02F0260667
:10057000D8B4CBEC02F0B2EF02F02606D8A4B2EF6A
:1005800002F024C00BF0F1EC01F01D2EACEF02F0F4
:10059000296A0A921200FF0E266E2506D8B4298019
:1005A00012000C0E286EFD0E276E274E282ED5EF5A
:1005B00002F000000000120011EC00F023EC00F04B
:1005C00041EC00F05EEC00F054EC00F04BEC00F07D
:1005D0000AAECEEF00F062EF02F08B908B928B941C
:0605E0008C6AE8EF02F056
:020000040030CA
:0100010006F8
:010003001EDE
:010005008179
:010006008178
:00000001FF
