:020000040000FA
:04000000FDEF00F020
:020004000000FA
:040008000DEF00F008
:080018001100F2B455EC00F0F8
:100020001100030E926E8994899693809382938433
:1000300093869388956A8C6AC00E946E8B6A1200C0
:10004000330E006E4F0E016E3B0E026E390E036EC4
:100050007E0E046E7D0E056E1F0E066E0B0E076E75
:100060000A6A270E106E1200AC98AC84AB8EAB8877
:10007000B886040EB06E100EAF6E1200C2800D0E68
:10008000C16EC09EC08AC088C084C0801200910E1C
:10009000D56E4CEC00F012003C0ED76EB00ED66E52
:1000A0001200E00EF26EF19E12004CEC00F0F294A1
:1000B0005BEC00F0120010C011F0898467EC00F0D6
:1000C000102E5EEF00F0899411C010F01200290E7E
:1000D000126E122E69EF00F012008B84D0EC00F04B
:1000E0000AAA98EC00F081A282EC00F09EAA0EEF22
:1000F00001F0AE500B6E500E0B620EEF01F00A8E47
:100100000EEF01F0F4EC00F0F4EC00F081B212001C
:100110000A8E81A289EF00F01200F4EC00F0F4ECFA
:1001200000F081B212000A9E81A294EF00F012004A
:10013000C284C282C2B29AEF00F0C4CF0EF0C80EE1
:100140000E60A8EC00F00F0E0E64B9EC00F0120087
:10015000900E105CD8A4CAEC00F0C282C2B2AEEF1E
:1001600000F0C4CF0FF08C0E0F5CD8A8ADEF00F0FC
:100170001200270E105CD8A4CDEC00F0C282C2B2EF
:10018000BFEF00F0C4CF0FF0640E0F5CD8B8BEEF25
:1001900000F012000F0E102612000F0E105E12005B
:1001A00081B6120081A6D2EF00F00A7A8B76120097
:1001B0008B800AACE2EF00F00A9C81A28DEC00F08B
:1001C0000EEF01F081B2E9EF00F08DEC00F00EEFE0
:1001D00001F09EAAE2EF00F0AE500B6E500E0B62E3
:1001E000E2EF00F0D8EF00F00C680D680D2EF6EF8E
:1001F00000F00C2EF5EF00F0120011EC00F020ECF6
:1002000000F034EC00F051EC00F047EC00F03EEC74
:1002100000F00AAE6DEF00F0D8EF00F08B908B92FB
:060220008B9409EF01F0D0
:020000040030CA
:0100010006F8
:010003001EDE
:010005008179
:010006008178
:00000001FF
