:020000040000FA
:04000000E7EF01F035
:020004000000FA
:040008000DEF00F008
:080018001100F2B459EC00F0F4
:100020001100030E926E8994899693809382938433
:1000300093869388956A8C6AC00E946E8B908B928F
:100040008B948B961200330E006E4F0E016E3B0E9A
:10005000026E390E036E7E0E046E7D0E056E1F0E4F
:10006000066E0B0E076E0A6A270E106E176E1200D0
:10007000240EAC6E900EAB6E080EB86E040EB06E11
:10008000100EAF6EC2800D0EC16EC09EC08AC088B9
:10009000C084C0801200910ED56E50EC00F01200AA
:1000A0003C0ED76EB00ED66E1200E00EF26EF19ED0
:1000B000120050EC00F0F2940AA863EC00F00AB8C9
:1000C00075EC00F0120010C011F089846FEC00F0A4
:1000D000102E66EF00F0899411C010F01200290E66
:1000E000126E122E71EF00F0120017C018F0898600
:1000F00081EC00F0172E78EF00F0899618C017F009
:100100001200290E1A6E1A2E83EF00F012008B8453
:1001100052EC01F00AAAB5EC00F00ABA66EC01F064
:1001200081A29FEC00F09EAAF8EF01F0AE500B6E9A
:10013000500E0B62F8EF01F00A8EF8EF01F0DEECE2
:1001400001F0DEEC01F081B212000A8E81A2A6EF6E
:1001500000F01200DEEC01F0DEEC01F081B21200E2
:100160000A9E81A2B1EF00F01200F0EC00F00A98B4
:10017000C284C282C2B2BAEF00F0C4CF0EF0C80E81
:100180000E60C8EC00F00F0E0E64D9EC00F0120007
:10019000900E105CD8A4EAEC00F0C282C2B2CEEF9E
:1001A00000F0C4CF0FF08C0E0F5CD8A8CDEF00F09C
:1001B0001200270E105CD8A4EDEC00F0C282C2B28F
:1001C000DFEF00F0C4CF0FF0640E0F5CD8B8DEEFA5
:1001D00000F012000F0E102612000F0E105E12001B
:1001E0000A88C294C282C2B2F3EF00F0136A146AA2
:1001F0001350C4640DEF01F0132AD8B00DEF01F0D5
:10020000142A1350C4640DEF01F0132A132AD8B036
:100210000DEF01F0142AF8EF00F0050E14641CEC49
:1002200001F0280E146419EC01F014C017F00A88CC
:100230001200280E146E1200280E106440EF01F018
:10024000370E106443EF01F0460E106446EF01F0E4
:10025000550E106449EF01F0640E10644CEF01F08C
:10026000730E10643AEF01F0820E10643DEF01F05E
:100270004FEF01F005C08CFF120006C08CFF12008A
:1002800000C08CFF120001C08CFF120002C08CFF66
:10029000120003C08CFF120004C08CFF120007C0C4
:1002A0008CFF120081B61200DEEC01F0DEEC01F0F2
:1002B00081A65CEF01F0120081A65CEF01F00A7AE2
:1002C0008B761200ACA262EF01F012009EAA12001F
:1002D000AE500B6E0A98430E0B6271EF01F0270EC1
:1002E000106E440E0B6277EF01F0360E106E450E65
:1002F0000B627DEF01F0450E106E460E0B6283EF30
:1003000001F0540E106E470E0B6289EF01F0630E80
:10031000106E410E0B628FEF01F0720E106E420EE6
:100320000B6295EF01F0810E106E630E0B629BEF76
:1003300001F0900E106EFF0E136EFF0E146E080E7D
:100340000C6E0C2EA1EF01F0142E9FEF01F0132E76
:100350009DEF01F01CEC01F0270E176E0A88FF0ECE
:10036000136EFF0E146E020E0C6E0C2EB5EF01F024
:10037000142EB3EF01F0132EB1EF01F0370E176E0C
:1003800012008B808B960AACCCEF01F00A9C81A204
:10039000AAEC00F0F8EF01F081B2D3EF01F0AAEC83
:1003A00000F0F8EF01F09EAACCEF01F0AE500B6E1A
:1003B000500E0B62CCEF01F0C1EF01F00C680D683C
:1003C0000D2EE0EF01F00C2EDFEF01F0120011EC2A
:1003D00000F023EC00F038EC00F055EC00F04BECB2
:1003E00000F042EC00F00AAE87EF00F0C1EF01F040
:0C03F0008B908B928B948C6AF3EF01F0E1
:020000040030CA
:0100010006F8
:010003001EDE
:010005008179
:010006008178
:00000001FF
