:020000040000FA
:04000000AAEF00F073
:020004000000FA
:040008000DEF00F008
:080018001100F2944CEC00F021
:10002000FA0E086E1100030E926E899489969380E1
:100030009382938493869388956A8C6AC00E946E9B
:100040008B6A1200330E006E4F0E016E3B0E026E75
:10005000390E036E7E0E046E7D0E056E1F0E066E4B
:100060000B0E076E0A6A1200AC98AC84AB8EAB889C
:10007000B886040EB06E100EAF6E1200C2800E0E67
:10008000C16EC09EC08AC088C084C0801200910E1C
:10009000D56E4CEC00F012003C0ED76EB00ED66E52
:1000A0001200E00EF26EF19E12000C680D680D2E2B
:1000B00057EF00F00C2E56EF00F0120055EC00F058
:1000C00055EC00F081B212000A9E81A265EF00F0AB
:1000D00012008B800AAC78EF00F00A9C81A25EECE3
:1000E00000F073EF00F08B908B928B948B96120044
:1000F00081B27FEF00F05EEC00F073EF00F09EAA9B
:1001000078EF00F0AE500B6E500E0B6278EF00F0FF
:1001100069EF00F055EC00F055EC00F081B21200F0
:100120000A8E81A291EF00F012008B8481A28AECEA
:1001300000F09EAAA5EF00F0AE500B6E500E0B62C1
:10014000A5EF00F00A8EA5EF00F08B908B928B94B8
:100150008B96120013EC00F022EC00F034EC00F06F
:1001600051EC00F047EC00F03EEC00F00AAE95ECEC
:0A01700000F069EC00F0B6EF00F0BB
:020000040030CA
:0100010006F8
:010003001EDE
:010005008179
:010006008178
:00000001FF
