:020000040000FA
:04000000F3EF00F02A
:020004000000FA
:040008000DEF00F008
:080018001100F2B455EC00F0F8
:100020001100030E926E8994899693809382938433
:1000300093869388956A8C6AC00E946E8B6A1200C0
:10004000330E006E4F0E016E3B0E026E390E036EC4
:100050007E0E046E7D0E056E1F0E066E0B0E076E75
:100060000A6A270E106E1200AC98AC84AB8EAB8877
:10007000B886040EB06E100EAF6E1200C2800E0E67
:10008000C16EC09EC08AC088C084C0801200910E1C
:10009000D56E4CEC00F012003C0ED76EB00ED66E52
:1000A0001200E00EF26EF19E12004CEC00F0F294A1
:1000B0005BEC00F0120010C011F0898467EC00F0D6
:1000C000102E5EEF00F0899411C010F01200290E7E
:1000D000126E122E69EF00F012008B8495EC00F086
:1000E00081A27FEC00F09EAA04EF01F0AE500B6EEF
:1000F000500E0B6204EF01F00A8E04EF01F0EAECFF
:1001000000F0EAEC00F081B212000A8E81A286EFC4
:1001100000F01200EAEC00F0EAEC00F081B212000C
:100120000A9E81A291EF00F01200C294C282C2B274
:1001300097EF00F0C4CF0EF0C80E0E60A5EC00F0F3
:100140000F0E0E64B7EC00F01200C20E105CD8A4C3
:10015000C8EC00F0C282C2B2ABEF00F0C4CF0FF027
:100160008C0E0F5CD8A8AAEF00F012001200270E28
:10017000105CD8A4CBEC00F0C282C2B2BDEF00F09C
:10018000C4CF0FF0640E0F5CD8B8BCEF00F01200C3
:10019000140E10261200140E105E12008B800AAC92
:1001A000D8EF00F00A9C81A28AEC00F004EF01F085
:1001B00081B2DFEF00F08AEC00F004EF01F09EAABC
:1001C000D8EF00F0AE500B6E500E0B62D8EF00F07F
:1001D000CEEF00F00C680D680D2EECEF00F00C2E49
:1001E000EBEF00F0120011EC00F020EC00F034EC2A
:1001F00000F051EC00F047EC00F03EEC00F00AAEED
:100200006DEF00F0CEEF00F08B908B928B94FFEFB0
:0202100000F0FC
:020000040030CA
:0100010006F8
:010003001EDE
:010005008179
:010006008178
:00000001FF
