:020000040000FA
:04000000D7EF02F044
:020004000000FA
:040008000DEF00F008
:080018001100F2B462EC00F0EB
:100020001100030E926E8994899693809382938433
:1000300093869388956A8C6AC00E946E8B908B928F
:100040008B948B961200330E006E4F0E016E3B0E9A
:10005000026E390E036E7E0E046E7D0E056E1F0E4F
:10006000066E0B0E076E0A6A1B6A296A270E106E4F
:10007000176EE16AE26AE2821D6A1C6A1F6A1E6AE2
:100080001200240EAC6E900EAB6E080EB86E040E0D
:10009000B06E100EAF6EC2800D0EC16EC09EC08AD3
:1000A000C088C084C0801200910ED56E59EC00F05B
:1000B00012003C0ED76EB00ED66E1200E00EF26E3D
:1000C000F19E120059EC00F0F2940AA8A0EC00F0A6
:1000D0000AB8B2EC00F00AA493EF00F0EA0E1F5C3D
:1000E000D8B475EF00F07FEF00F0600E1E5CD8B45E
:1000F0007CEF00F07FEF00F00A9493EF00F01EC059
:1001000021F0140E1E26D8B688EF00F093EF00F011
:10011000140E236EFF0E226E2150225C235E23C03C
:100120001EF01E061F2A81A698EF00F09EEF00F039
:100130001B2A320E1B5CD8B40A8612001B6A1200FE
:1001400010C011F08984ACEC00F0102EA3EF00F089
:10015000899411C010F01200290E126E122EAEEF0B
:1001600000F0120017C018F08986BEEC00F0172EC0
:10017000B5EF00F0899618C017F01200290E1A6E1C
:100180001A2EC0EF00F012001CC0E6FF1CC08CFF4E
:100190001EC0E6FF1FC0E6FF1D2A1E6A1F6A12006E
:1001A0000AA4D5EF00F0D8EF00F08B84DAEF00F06E
:1001B0008B828B94C3EC01F00AAA0EEC01F00ABA10
:1001C000E6EC01F00AB4D0EF00F081A483EC02F079
:1001D00081A2F8EC00F09EAAE8EF02F0AE500B6EA0
:1001E000500E0B62E8EF02F00A8E0A8CE8EF02F084
:1001F00096EC02F096EC02F081B212000A8E81A217
:10020000FFEF00F0120096EC02F096EC02F081B2E3
:1002100012000A9E81A20AEF01F012004AEC01F0DE
:100220008C6A0A98C284C282C2B214EF01F0C4CFB1
:100230000EF0C80E0E6022EC01F00F0E0E6433ECCF
:1002400001F012007B0E105CD8A444EC01F0C282D5
:10025000C2B228EF01F0C4CF0FF08C0E0F5CD8A80B
:1002600027EF01F01200270E105CD8A447EC01F034
:10027000C282C2B239EF01F0C4CF0FF0640E0F5C3E
:10028000D8B838EF01F012000C0E102612000C0E38
:10029000105E12000A88C294C282C2B24DEF01F011
:1002A000136A146A1350C46467EF01F0132AD8B0BC
:1002B00067EF01F0142A1350C46467EF01F0132AAA
:1002C000132AD8B067EF01F0142A52EF01F0050E9F
:1002D00014646DEF01F072EF01F07DEC01F00AB4EF
:1002E000C4EC00F0270E14647AEC01F014C017F08F
:1002F0000A881200270E146E1200280E1064A5EF53
:1003000001F0340E1064AAEF01F0400E1064AFEF5C
:1003100001F04C0E1064B4EF01F0580E1064B9EF08
:1003200001F0640E10649BEF01F0700E1064A0EFFA
:1003300001F0BEEF01F005C08CFF410E1C6E1200F3
:1003400006C08CFF420E1C6E120000C08CFF430ED4
:100350001C6E120001C08CFF440E1C6E120002C005
:100360008CFF450E1C6E120003C08CFF460E1C6EE7
:10037000120004C08CFF470E1C6E120007C08CFFD9
:10038000630E1C6E120081B6120096EC02F096EC21
:1003900002F081A6CDEF01F0120081A6CDEF01F0B1
:1003A0000AB6D6EF01F00A7A8B7612000A960A7422
:1003B000BF0E1D6EE16A000EE66E1D2EDBEF01F032
:1003C000E16A1200ACA2E2EF01F012009EAA120054
:1003D000AE500B6E0A988C6A430E0B62F4EF01F07C
:1003E000270E106E2DEF02F0440E0B62FCEF01F0B1
:1003F000330E106E2DEF02F0450E0B6204EF02F08B
:100400003F0E106E2DEF02F0460E0B620CEF02F065
:100410004B0E106E2DEF02F0470E0B6214EF02F040
:10042000570E106E2DEF02F0410E0B621CEF02F022
:10043000630E106E2DEF02F0420E0B6224EF02F0FD
:100440006F0E106E2DEF02F0630E0B622CEF02F0B8
:100450007B0E106E2DEF02F01200FF0E136EFF0EDA
:10046000146E080E0C6E0C2E33EF02F0142E31EFCA
:1004700002F0132E2FEF02F07DEC01F0270E176E25
:100480000A88FF0E136EFF0E146E020E0C6E0C2EF9
:1004900047EF02F0142E45EF02F0132E43EF02F067
:1004A000370E176E0AB2C4EC00F012004B0EAD6EA0
:1004B000E2EC01F012008B808B960AAC6DEF02F03B
:1004C00020AE56EC02F0E6EC01F08C6A530E0B62A3
:1004D00063EF02F00A9CE8EF02F081B274EF02F0E1
:1004E00003EC01F0E8EF02F081A483EC02F09EAA95
:1004F0006DEF02F0AE500B6E500E0B626DEF02F01E
:100500000A8C5BEF02F096EC02F096EC02F081B4FC
:10051000120081A489EF02F096EC02F096EC02F052
:1005200081A48CEF02F09FEC02F012000C680D68C1
:100530000D2E98EF02F00C2E97EF02F01200000E35
:100540001D5CD8B412000A82E16AE6CF24F024C010
:100550008CFFE6CF26F0E6CF25F0CCEC02F029B0F8
:10056000B8EF02F02606D8B4C6EC02F0ADEF02F008
:100570002606D8A4ADEF02F024C00BF0EAEC01F09F
:100580001D2EA5EF02F0296A0A921200FF0E266EB8
:100590002506D8B4298012000C0E286EFD0E276E99
:1005A000274E282ED0EF02F000000000120011ECC0
:1005B00000F023EC00F041EC00F05EEC00F054ECB5
:1005C00000F04BEC00F00AAED0EF00F05BEF02F071
:0C05D0008B908B928B948C6AE3EF02F00E
:020000040030CA
:0100010006F8
:010003001EDE
:010005008179
:010006008178
:00000001FF
