:020000040000FA
:04000000F2EF00F02B
:020004000000FA
:040008000DEF00F008
:080018001100F2B455EC00F0F8
:100020001100030E926E8994899693809382938433
:1000300093869388956A8C6AC00E946E8B6A1200C0
:10004000330E006E4F0E016E3B0E026E390E036EC4
:100050007E0E046E7D0E056E1F0E066E0B0E076E75
:100060000A6A270E106E1200AC98AC84AB8EAB8877
:10007000B886040EB06E100EAF6E1200C2800D0E68
:10008000C16EC09EC08AC088C084C0801200910E1C
:10009000D56E4CEC00F012003C0ED76EB00ED66E52
:1000A0001200E00EF26EF19E12004CEC00F0F294A1
:1000B0005BEC00F0120010C011F0898467EC00F0D6
:1000C000102E5EEF00F0899411C010F01200290E7E
:1000D000126E122E69EF00F012008B8495EC00F086
:1000E00081A27FEC00F09EAA03EF01F0AE500B6EF0
:1000F000500E0B6203EF01F00A8E03EF01F0E9EC02
:1001000000F0E9EC00F081B212000A8E81A286EFC5
:1001100000F01200E9EC00F0E9EC00F081B212000E
:100120000A9E81A291EF00F01200C284C282C2B284
:1001300097EF00F0C4CF0EF0C80E0E60A5EC00F0F3
:100140000F0E0E64B6EC00F01200900E105CD8A4F6
:10015000C7EC00F0C282C2B2ABEF00F0C4CF0FF028
:100160008C0E0F5CD8A8AAEF00F01200270E105CCE
:10017000D8A4CAEC00F0C282C2B2BCEF00F0C4CF77
:100180000FF0640E0F5CD8B8BBEF00F012000F0E3A
:10019000102612000F0E105E12008B800AACD7EFF3
:1001A00000F00A9C81A28AEC00F003EF01F081B21A
:1001B000DEEF00F08AEC00F003EF01F09EAAD7EF2B
:1001C00000F0AE500B6E500E0B62D7EF00F0CDEF8B
:1001D00000F00C680D680D2EEBEF00F00C2EEAEF2E
:1001E00000F0120011EC00F020EC00F034EC00F014
:1001F00051EC00F047EC00F03EEC00F00AAE6DEF81
:1002000000F0CDEF00F08B908B928B94FEEF00F01E
:020000040030CA
:0100010006F8
:010003001EDE
:010005008179
:010006008178
:00000001FF
