:020000040000FA
:04000000EBEF02F030
:020004000000FA
:040008000DEF00F008
:080018001100F2B462EC00F0EB
:100020001100030E926E8994899693809382938433
:1000300093869388956A8C6AC00E946E8B908B928F
:100040008B948B961200330E006E4F0E016E3B0E9A
:10005000026E390E036E7E0E046E7D0E056E1F0E4F
:10006000066E0B0E076E0A6A1B6A296A270E106E4F
:10007000176EE96AEA6AEA801D6A1C6A1F6A1E6ACC
:100080001200240EAC6E900EAB6E080EB86E040E0D
:10009000B06E100EAF6EC2800D0EC16EC09EC08AD3
:1000A000C088C084C0801200910ED56E59EC00F05B
:1000B00012003C0ED76EB00ED66E1200E00EF26E3D
:1000C000F19E120059EC00F0F2940AA8A0EC00F0A6
:1000D0000AB8B2EC00F00AA493EF00F0EA0E1F5C3D
:1000E000D8B475EF00F07FEF00F0600E1E5CD8B45E
:1000F0007CEF00F07FEF00F00A9493EF00F01EC059
:1001000021F0140E1E26D8B688EF00F093EF00F011
:10011000140E236EFF0E226E2150225C235E23C03C
:100120001EF01E061F2A81A698EF00F09EEF00F039
:100130001B2A320E1B5CD8B40A8612001B6A1200FE
:1001400010C011F08984ACEC00F0102EA3EF00F089
:10015000899411C010F01200290E126E122EAEEF0B
:1001600000F0120017C018F08986BEEC00F0172EC0
:10017000B5EF00F0899618C017F01200290E1A6E1C
:100180001A2EC0EF00F012001CC0EEFF1EC0EEFFE2
:100190001FC0EEFF1D2A1E6A1F6A400E1D5CD8B4E8
:1001A0000A9412000AA4D7EF00F0DAEF00F08B8473
:1001B000DCEF00F08B828B94CFEC01F00AAA11ECFB
:1001C00001F00ABAF8EC01F00AB4D2EF00F081A411
:1001D00095EC02F081A2FAEC00F09EAAFCEF02F08E
:1001E000AE500B6E500E0B62FCEF02F00A8E0A8CC2
:1001F000FCEF02F0A8EC02F0A8EC02F081B21200D1
:100200000A8E81A201EF01F01200A8EC02F0A8EC26
:1002100002F081B212000A9E0A9A81A20DEF01F04B
:1002200012004DEC01F08C6A0A98C284C282C2B2FC
:1002300017EF01F0C4CF0EF0C80E0E6025EC01F0F0
:100240000F0E0E6436EC01F012007B0E105CD8A489
:1002500047EC01F0C282C2B22BEF01F0C4CF0FF025
:100260008C0E0F5CD8A82AEF01F01200270E105C4C
:10027000D8A44AEC01F0C282C2B23CEF01F0C4CF74
:100280000FF0640E0F5CD8B83BEF01F012000C0EBB
:10029000102612000C0E105E12000A88C294C28250
:1002A000C2B250EF01F0136A146A1350C4646AEFCB
:1002B00001F0132AD8B06AEF01F0142A1350C46475
:1002C0006AEF01F0132A132AD8B06AEF01F0142A5A
:1002D00055EF01F0050E146470EF01F07BEF01F0B3
:1002E00089EC01F00AB477EF01F07BEF01F00AA08E
:1002F000C4EC00F00A80640EC4600A90270E1464F7
:1003000086EC01F014C017F00A881200270E146E54
:100310001200280E1064B1EF01F0340E1064B6EF35
:1003200001F0400E1064BBEF01F04C0E1064C0EF02
:1003300001F0580E1064C5EF01F0640E1064A7EFD1
:1003400001F0700E1064ACEF01F0CAEF01F005C0CF
:100350008CFF410E1C6E120006C08CFF420E1C6EFC
:10036000120000C08CFF430E1C6E120001C08CFFF7
:10037000440E1C6E120002C08CFF450E1C6E120053
:1003800003C08CFF460E1C6E120004C08CFF470E8B
:100390001C6E120007C08CFF630E1C6E120081B62B
:1003A0001200A8EC02F0A8EC02F081A6D9EF01F04F
:1003B000120081A6D9EF01F00AB6E2EF01F00A7A45
:1003C0008B7612000AA4E8EF01F00A940A96120054
:1003D0000A960A84BF0E1D6EE96A000EEE6E1D2E8F
:1003E000EDEF01F0E96A1200ACA2F4EF01F01200A7
:1003F0009EAA1200AE500B6E0A988C6A430E0B62D6
:1004000006EF02F0270E106E3FEF02F0440E0B6273
:100410000EEF02F0330E106E3FEF02F0450E0B624E
:1004200016EF02F03F0E106E3FEF02F0460E0B6229
:100430001EEF02F04B0E106E3FEF02F0470E0B6204
:1004400026EF02F0570E106E3FEF02F0410E0B62E6
:100450002EEF02F0630E106E3FEF02F0420E0B62C1
:1004600036EF02F06F0E106E3FEF02F0630E0B627C
:100470003EEF02F07B0E106E3FEF02F01200FF0E17
:10048000136EFF0E146E080E0C6E0C2E45EF02F06C
:10049000142E43EF02F0132E41EF02F089EC01F02D
:1004A000270E176E0A88FF0E136EFF0E146E020ED3
:1004B0000C6E0C2E59EF02F0142E57EF02F0132E93
:1004C00055EF02F0370E176E0AB4C4EC00F01200BC
:1004D0004B0EAD6EF4EC01F012008B808B960AACE3
:1004E0007FEF02F020AE68EC02F0F8EC01F08C6ACD
:1004F000530E0B6275EF02F00A9CFCEF02F081B222
:1005000086EF02F005EC01F0FCEF02F081A495EC1F
:1005100002F09EAA7FEF02F0AE500B6E500E0B62FF
:100520007FEF02F00A8C6DEF02F0A8EC02F0A8EC6D
:1005300002F081B4120081A49BEF02F0A8EC02F05B
:10054000A8EC02F081A49EEF02F0B1EC02F01200E0
:100550000C680D680D2EAAEF02F00C2EA9EF02F028
:100560001200000E1D5CD8B412001DC030F00A82CB
:10057000E96AEECF24F0EECF26F0EECF25F024C0CE
:100580000BF0FCEC01F0E0EC02F029B0CEEF02F051
:100590002606D8B4DAEC02F0C3EF02F02606D8A49F
:1005A000C3EF02F01D2EB9EF02F0296A0A9230C0A3
:1005B0001DF01200FF0E266E2506D8B42980120009
:1005C0000C0E286EFD0E276E274E282EE4EF02F04B
:1005D00000000000120011EC00F023EC00F041ECF0
:1005E00000F05EEC00F054EC00F04BEC00F00AAED2
:1005F000D2EF00F06DEF02F08B908B928B948C6AAF
:04060000F7EF02F01E
:020000040030CA
:0100010006F8
:010003001EDE
:010005008179
:010006008178
:00000001FF
