:020000040000FA
:04000000EAEF02F031
:020004000000FA
:040008000DEF00F008
:080018001100F2B462EC00F0EB
:100020001100030E926E8994899693809382938433
:1000300093869388956A8C6AC00E946E8B908B928F
:100040008B948B961200330E006E4F0E016E3B0E9A
:10005000026E390E036E7E0E046E7D0E056E1F0E4F
:10006000066E0B0E076E0A6A1B6A296A270E106E4F
:10007000176EE96AEA6AEA801D6A1C6A1F6A1E6ACC
:100080001200240EAC6E900EAB6E080EB86E040E0D
:10009000B06E100EAF6EC2800D0EC16EC09EC08AD3
:1000A000C088C084C0801200910ED56E59EC00F05B
:1000B00012003C0ED76EB00ED66E1200E00EF26E3D
:1000C000F19E120059EC00F0F2940AA8A0EC00F0A6
:1000D0000AB8B2EC00F00AA493EF00F0EA0E1F5C3D
:1000E000D8B475EF00F07FEF00F0600E1E5CD8B45E
:1000F0007CEF00F07FEF00F00A9493EF00F01EC059
:1001000021F0140E1E26D8B688EF00F093EF00F011
:10011000140E236EFF0E226E2150225C235E23C03C
:100120001EF01E061F2A81A698EF00F09EEF00F039
:100130001B2A320E1B5CD8B40A8612001B6A1200FE
:1001400010C011F08984ACEC00F0102EA3EF00F089
:10015000899411C010F01200290E126E122EAEEF0B
:1001600000F0120017C018F08986BEEC00F0172EC0
:10017000B5EF00F0899618C017F01200290E1A6E1C
:100180001A2EC0EF00F012001CC0EEFF1EC0EEFFE2
:100190001FC0EEFF1D2A1E6A1F6A050E1D5CD8B423
:1001A0000A9412000AA4D7EF00F0DAEF00F08B8473
:1001B000DCEF00F08B828B94CEEC01F00AAA10ECFD
:1001C00001F00ABAF7EC01F00AB4D2EF00F081A412
:1001D00094EC02F081A2FAEC00F09EAAFBEF02F090
:1001E000AE500B6E500E0B62FBEF02F00A8E0A8CC3
:1001F000FBEF02F0A7EC02F0A7EC02F081B21200D4
:100200000A8E81A201EF01F01200A7EC02F0A7EC28
:1002100002F081B212000A9E81A20CEF01F01200DE
:100220004CEC01F08C6A0A98C284C282C2B216EF0A
:1002300001F0C4CF0EF0C80E0E6024EC01F00F0EDA
:100240000E6435EC01F012007B0E105CD8A446EC75
:1002500001F0C282C2B22AEF01F0C4CF0FF08C0EBF
:100260000F5CD8A829EF01F01200270E105CD8A46B
:1002700049EC01F0C282C2B23BEF01F0C4CF0FF0F3
:10028000640E0F5CD8B83AEF01F012000C0E102685
:1002900012000C0E105E12000A88C294C282C2B212
:1002A0004FEF01F0136A146A1350C46469EF01F050
:1002B000132AD8B069EF01F0142A1350C46469EF0F
:1002C00001F0132A132AD8B069EF01F0142A54EF71
:1002D00001F0050E14646FEF01F07AEF01F088EC85
:1002E00001F00AB476EF01F07AEF01F00AA0C4EC55
:1002F00000F00A80640EC4600A90270E146485EC36
:1003000001F014C017F00A881200270E146E1200B4
:10031000280E1064B0EF01F0340E1064B5EF01F058
:10032000400E1064BAEF01F04C0E1064BFEF01F004
:10033000580E1064C4EF01F0640E1064A6EF01F0D3
:10034000700E1064ABEF01F0C9EF01F005C08CFF37
:10035000410E1C6E120006C08CFF420E1C6E120075
:1003600000C08CFF430E1C6E120001C08CFF440EB7
:100370001C6E120002C08CFF450E1C6E120003C0E2
:100380008CFF460E1C6E120004C08CFF470E1C6EC4
:10039000120007C08CFF630E1C6E120081B61200A3
:1003A000A7EC02F0A7EC02F081A6D8EF01F0120052
:1003B00081A6D8EF01F00AB6E1EF01F00A7A8B7658
:1003C00012000AA4E7EF01F00A940A9612000A96B6
:1003D0000A84BF0E1D6EE96A000EEE6E1D2EECEF54
:1003E00001F0E96A1200ACA2F3EF01F012009EAA3C
:1003F0001200AE500B6E0A988C6A430E0B6205EF2A
:1004000002F0270E106E3EEF02F0440E0B620DEF6D
:1004100002F0330E106E3EEF02F0450E0B6215EF48
:1004200002F03F0E106E3EEF02F0460E0B621DEF23
:1004300002F04B0E106E3EEF02F0470E0B6225EFFE
:1004400002F0570E106E3EEF02F0410E0B622DEFE0
:1004500002F0630E106E3EEF02F0420E0B6235EFBB
:1004600002F06F0E106E3EEF02F0630E0B623DEF76
:1004700002F07B0E106E3EEF02F01200FF0E136EC4
:10048000FF0E146E080E0C6E0C2E44EF02F0142EAC
:1004900042EF02F0132E40EF02F088EC01F0270E3D
:1004A000176E0A88FF0E136EFF0E146E020E0C6E8E
:1004B0000C2E58EF02F0142E56EF02F0132E54EFCC
:1004C00002F0370E176E0AB4C4EC00F012004B0EA7
:1004D000AD6EF3EC01F012008B808B960AAC7EEFD0
:1004E00002F020AE67EC02F0F7EC01F08C6A530EDC
:1004F0000B6274EF02F00A9CFBEF02F081B285EF11
:1005000002F005EC01F0FBEF02F081A494EC02F0A4
:100510009EAA7EEF02F0AE500B6E500E0B627EEF85
:1005200002F00A8C6CEF02F0A7EC02F0A7EC02F0EC
:1005300081B4120081A49AEF02F0A7EC02F0A7ECBC
:1005400002F081A49DEF02F0B0EC02F012000C6802
:100550000D680D2EA9EF02F00C2EA8EF02F012008C
:10056000000E1D5CD8B412001DC030F00A82E96A8A
:10057000EECF24F0EECF26F0EECF25F024C00BF026
:10058000FBEC01F0DFEC02F029B0CDEF02F0260623
:10059000D8B4D9EC02F0C2EF02F02606D8A4C2EF1C
:1005A00002F01D2EB8EF02F0296A0A9230C01DF049
:1005B0001200FF0E266E2506D8B4298012000C0EFC
:1005C000286EFD0E276E274E282EE3EF02F0000066
:1005D0000000120011EC00F023EC00F041EC00F000
:1005E0005EEC00F054EC00F04BEC00F00AAED2EF01
:1005F00000F06CEF02F08B908B928B948C6AF6EF8C
:0206000002F006
:020000040030CA
:0100010006F8
:010003001EDE
:010005008179
:010006008178
:00000001FF
