:020000040000FA
:040000003DEF01F0DF
:020004000000FA
:040008000DEF00F008
:080018001100F2B455EC00F0F8
:100020001100030E926E8994899693809382938433
:1000300093869388956A8C6AC00E946E8B6A1200C0
:10004000330E006E4F0E016E3B0E026E390E036EC4
:100050007E0E046E7D0E056E1F0E066E0B0E076E75
:100060000A6A270E106E1200AC98AC84AB8EAB8877
:10007000B886040EB06E100EAF6E1200C2800D0E68
:10008000C16EC09EC08AC088C084C0801200910E1C
:10009000D56E4CEC00F012003C0ED76EB00ED66E52
:1000A0001200E00EF26EF19E12004CEC00F0F294A1
:1000B0005BEC00F0120010C011F0898467EC00F0D6
:1000C000102E5EEF00F0899411C010F01200290E7E
:1000D000126E122E69EF00F012008B84D2EC00F049
:1000E0000AAA9AEC00F0E2EC00F081A284EC00F0A5
:1000F0009EAA4EEF01F0AE500B6E500E0B624EEF0B
:1001000001F00A8E4EEF01F034EC01F034EC01F016
:1001100081B212000A8E81A28BEF00F0120034EC43
:1001200001F034EC01F081B212000A9E81A296EF38
:1001300000F01200C284C282C2B29CEF00F0C4CFB1
:100140000EF0C80E0E60AAEC00F00F0E0E64BBECB1
:1001500000F01200900E105CD8A4CCEC00F0C2822B
:10016000C2B2B0EF00F0C4CF0FF08C0E0F5CD8A875
:10017000AFEF00F01200270E105CD8A4CFEC00F017
:10018000C282C2B2C1EF00F0C4CF0FF0640E0F5CA8
:10019000D8B8C0EF00F012000F0E102612000F0E9C
:1001A000105E120081B6120034EC01F034EC01F064
:1001B00081A6DCEF00F0120081A6DCEF00F00A7AE5
:1001C0008B7612009EAA1200AE50F29A430E0B627A
:1001D000ECEF00F0270E106E440E0B62F2EF00F011
:1001E000360E106E450E0B62F8EF00F0450E106EE5
:1001F000460E0B62FEEF00F0540E106E470E0B62BF
:1002000004EF01F0630E106E410E0B620AEF01F075
:10021000720E106E420E0B6210EF01F0810E106E26
:10022000630E0B6216EF01F0900E106EF28A120050
:100230008B800AAC22EF01F00A9C81A28FEC00F0C7
:100240004EEF01F081B229EF01F08FEC00F04EEF9C
:1002500001F09EAA22EF01F0AE500B6E500E0B6221
:1002600022EF01F018EF01F00C680D680D2E36EF4B
:1002700001F00C2E35EF01F0120011EC00F020EC33
:1002800000F034EC00F051EC00F047EC00F03EECF4
:1002900000F00AAE6DEF00F018EF01F08B908B923A
:0602A0008B9449EF01F010
:020000040030CA
:0100010006F8
:010003001EDE
:010005008179
:010006008178
:00000001FF
