:020000040000FA
:040000008AEF01F092
:020004000000FA
:040008000DEF00F008
:080018001100F2B459EC00F0F4
:100020001100030E926E8994899693809382938433
:1000300093869388956A8C6AC00E946E8B908B928F
:100040008B948B961200330E006E4F0E016E3B0E9A
:10005000026E390E036E7E0E046E7D0E056E1F0E4F
:10006000066E0B0E076E0A6A270E106E176E1200D0
:10007000240EAC6E900EAB6E080EB86E040EB06E11
:10008000100EAF6EC2800D0EC16EC09EC08AC088B9
:10009000C084C0801200910ED56E50EC00F01200AA
:1000A0003C0ED76EB00ED66E1200E00EF26EF19ED0
:1000B000120050EC00F0F2940AA864EC00F00AB8C8
:1000C00076EC00F00A98120010C011F0898470ECF0
:1000D00000F0102E67EF00F0899411C010F01200AC
:1000E000290E126E122E72EF00F0120017C018F0D7
:1000F000898682EC00F0172E79EF00F0899618C0FF
:1001000017F01200290E1A6E1A2E84EF00F012005A
:100110008B8417EC01F00AAAB6EC00F00ABA2BECBB
:1001200001F081A2A0EC00F09EAA9BEF01F0AE507E
:100130000B6E500E0B629BEF01F00A8E9BEF01F0ED
:1001400081EC01F081EC01F081B212000A8E81A2F3
:10015000A7EF00F0120081EC01F081EC01F081B218
:1001600012000A9E81A2B2EF00F01200F0EC00F043
:10017000C284C282C2B2BAEF00F0C4CF0EF0C80E81
:100180000E60C8EC00F00F0E0E64D9EC00F0120007
:10019000900E105CD8A4EAEC00F0C282C2B2CEEF9E
:1001A00000F0C4CF0FF08C0E0F5CD8A8CDEF00F09C
:1001B0001200270E105CD8A4EDEC00F0C282C2B28F
:1001C000DFEF00F0C4CF0FF0640E0F5CD8B8DEEFA5
:1001D00000F012000F0E102612000F0E105E12001B
:1001E000C294C282C2B2F2EF00F0136A146A1350D2
:1001F000C4640CEF01F0132AD8B00CEF01F0142AFC
:100200001350C4640CEF01F0132A132AD8B00CEF7A
:1002100001F0142AF7EF00F0280E146414EC01F03A
:1002200014C017F00A881200280E146E120081B64E
:10023000120081EC01F081EC01F081A621EF01F0C8
:10024000120081A621EF01F00A7A8B761200ACA28F
:1002500027EF01F012009EAA1200AE500B6E0BC0E9
:10026000ADFF27EC01F0430E0B6239EF01F0270ED2
:10027000106E440E0B623FEF01F0360E106E450E0D
:100280000B6245EF01F0450E106E460E0B624BEF10
:1002900001F0540E106E470E0B6251EF01F0630E29
:1002A000106E410E0B6257EF01F0720E106E420E8F
:1002B0000B625DEF01F0810E106E630E0B6263EF57
:1002C00001F0900E106E12008B808B960AAC6FEFCF
:1002D00001F00A9C81A2ABEC00F09BEF01F081B22F
:1002E00076EF01F0ABEC00F09BEF01F09EAA6FEF10
:1002F00001F0AE500B6E500E0B626FEF01F064EF29
:1003000001F00C680D680D2E83EF01F00C2E82EFCA
:1003100001F0120011EC00F023EC00F038EC00F0DA
:1003200055EC00F04BEC00F042EC00F00AAE88EF28
:1003300000F064EF01F08B908B928B9496EF01F0BC
:020000040030CA
:0100010006F8
:010003001EDE
:010005008179
:010006008178
:00000001FF
